{
    "contractName": "BasicNFT",
    "abi": [
        {
            "inputs": [
                {
                    "internalType": "string",
                    "name": "_name",
                    "type": "string"
                },
                {
                    "internalType": "string",
                    "name": "_symbol",
                    "type": "string"
                }
            ],
            "stateMutability": "nonpayable",
            "type": "constructor"
        },
        {
            "anonymous": false,
            "inputs": [
                {
                    "indexed": true,
                    "internalType": "address",
                    "name": "owner",
                    "type": "address"
                },
                {
                    "indexed": true,
                    "internalType": "address",
                    "name": "approved",
                    "type": "address"
                },
                {
                    "indexed": true,
                    "internalType": "uint256",
                    "name": "tokenId",
                    "type": "uint256"
                }
            ],
            "name": "Approval",
            "type": "event"
        },
        {
            "anonymous": false,
            "inputs": [
                {
                    "indexed": true,
                    "internalType": "address",
                    "name": "owner",
                    "type": "address"
                },
                {
                    "indexed": true,
                    "internalType": "address",
                    "name": "operator",
                    "type": "address"
                },
                {
                    "indexed": false,
                    "internalType": "bool",
                    "name": "approved",
                    "type": "bool"
                }
            ],
            "name": "ApprovalForAll",
            "type": "event"
        },
        {
            "anonymous": false,
            "inputs": [
                {
                    "indexed": true,
                    "internalType": "address",
                    "name": "previousOwner",
                    "type": "address"
                },
                {
                    "indexed": true,
                    "internalType": "address",
                    "name": "newOwner",
                    "type": "address"
                }
            ],
            "name": "OwnershipTransferred",
            "type": "event"
        },
        {
            "anonymous": false,
            "inputs": [
                {
                    "indexed": true,
                    "internalType": "bytes32",
                    "name": "role",
                    "type": "bytes32"
                },
                {
                    "indexed": true,
                    "internalType": "bytes32",
                    "name": "previousAdminRole",
                    "type": "bytes32"
                },
                {
                    "indexed": true,
                    "internalType": "bytes32",
                    "name": "newAdminRole",
                    "type": "bytes32"
                }
            ],
            "name": "RoleAdminChanged",
            "type": "event"
        },
        {
            "anonymous": false,
            "inputs": [
                {
                    "indexed": true,
                    "internalType": "bytes32",
                    "name": "role",
                    "type": "bytes32"
                },
                {
                    "indexed": true,
                    "internalType": "address",
                    "name": "account",
                    "type": "address"
                },
                {
                    "indexed": true,
                    "internalType": "address",
                    "name": "sender",
                    "type": "address"
                }
            ],
            "name": "RoleGranted",
            "type": "event"
        },
        {
            "anonymous": false,
            "inputs": [
                {
                    "indexed": true,
                    "internalType": "bytes32",
                    "name": "role",
                    "type": "bytes32"
                },
                {
                    "indexed": true,
                    "internalType": "address",
                    "name": "account",
                    "type": "address"
                },
                {
                    "indexed": true,
                    "internalType": "address",
                    "name": "sender",
                    "type": "address"
                }
            ],
            "name": "RoleRevoked",
            "type": "event"
        },
        {
            "anonymous": false,
            "inputs": [
                {
                    "indexed": true,
                    "internalType": "address",
                    "name": "from",
                    "type": "address"
                },
                {
                    "indexed": true,
                    "internalType": "address",
                    "name": "to",
                    "type": "address"
                },
                {
                    "indexed": true,
                    "internalType": "uint256",
                    "name": "tokenId",
                    "type": "uint256"
                }
            ],
            "name": "Transfer",
            "type": "event"
        },
        {
            "inputs": [],
            "name": "BURNER_ROLE",
            "outputs": [
                {
                    "internalType": "bytes32",
                    "name": "",
                    "type": "bytes32"
                }
            ],
            "stateMutability": "view",
            "type": "function"
        },
        {
            "inputs": [],
            "name": "DEFAULT_ADMIN_ROLE",
            "outputs": [
                {
                    "internalType": "bytes32",
                    "name": "",
                    "type": "bytes32"
                }
            ],
            "stateMutability": "view",
            "type": "function"
        },
        {
            "inputs": [],
            "name": "MINTER_ROLE",
            "outputs": [
                {
                    "internalType": "bytes32",
                    "name": "",
                    "type": "bytes32"
                }
            ],
            "stateMutability": "view",
            "type": "function"
        },
        {
            "inputs": [
                {
                    "internalType": "address",
                    "name": "to",
                    "type": "address"
                },
                {
                    "internalType": "uint256",
                    "name": "tokenId",
                    "type": "uint256"
                }
            ],
            "name": "approve",
            "outputs": [],
            "stateMutability": "nonpayable",
            "type": "function"
        },
        {
            "inputs": [
                {
                    "internalType": "address",
                    "name": "owner",
                    "type": "address"
                }
            ],
            "name": "balanceOf",
            "outputs": [
                {
                    "internalType": "uint256",
                    "name": "",
                    "type": "uint256"
                }
            ],
            "stateMutability": "view",
            "type": "function"
        },
        {
            "inputs": [
                {
                    "internalType": "uint256",
                    "name": "tokenId",
                    "type": "uint256"
                }
            ],
            "name": "getApproved",
            "outputs": [
                {
                    "internalType": "address",
                    "name": "",
                    "type": "address"
                }
            ],
            "stateMutability": "view",
            "type": "function"
        },
        {
            "inputs": [
                {
                    "internalType": "bytes32",
                    "name": "role",
                    "type": "bytes32"
                }
            ],
            "name": "getRoleAdmin",
            "outputs": [
                {
                    "internalType": "bytes32",
                    "name": "",
                    "type": "bytes32"
                }
            ],
            "stateMutability": "view",
            "type": "function"
        },
        {
            "inputs": [
                {
                    "internalType": "bytes32",
                    "name": "role",
                    "type": "bytes32"
                },
                {
                    "internalType": "address",
                    "name": "account",
                    "type": "address"
                }
            ],
            "name": "grantRole",
            "outputs": [],
            "stateMutability": "nonpayable",
            "type": "function"
        },
        {
            "inputs": [
                {
                    "internalType": "bytes32",
                    "name": "role",
                    "type": "bytes32"
                },
                {
                    "internalType": "address",
                    "name": "account",
                    "type": "address"
                }
            ],
            "name": "hasRole",
            "outputs": [
                {
                    "internalType": "bool",
                    "name": "",
                    "type": "bool"
                }
            ],
            "stateMutability": "view",
            "type": "function"
        },
        {
            "inputs": [
                {
                    "internalType": "address",
                    "name": "owner",
                    "type": "address"
                },
                {
                    "internalType": "address",
                    "name": "operator",
                    "type": "address"
                }
            ],
            "name": "isApprovedForAll",
            "outputs": [
                {
                    "internalType": "bool",
                    "name": "",
                    "type": "bool"
                }
            ],
            "stateMutability": "view",
            "type": "function"
        },
        {
            "inputs": [],
            "name": "name",
            "outputs": [
                {
                    "internalType": "string",
                    "name": "",
                    "type": "string"
                }
            ],
            "stateMutability": "view",
            "type": "function"
        },
        {
            "inputs": [],
            "name": "owner",
            "outputs": [
                {
                    "internalType": "address",
                    "name": "",
                    "type": "address"
                }
            ],
            "stateMutability": "view",
            "type": "function"
        },
        {
            "inputs": [
                {
                    "internalType": "uint256",
                    "name": "tokenId",
                    "type": "uint256"
                }
            ],
            "name": "ownerOf",
            "outputs": [
                {
                    "internalType": "address",
                    "name": "",
                    "type": "address"
                }
            ],
            "stateMutability": "view",
            "type": "function"
        },
        {
            "inputs": [],
            "name": "renounceOwnership",
            "outputs": [],
            "stateMutability": "nonpayable",
            "type": "function"
        },
        {
            "inputs": [
                {
                    "internalType": "bytes32",
                    "name": "role",
                    "type": "bytes32"
                },
                {
                    "internalType": "address",
                    "name": "account",
                    "type": "address"
                }
            ],
            "name": "renounceRole",
            "outputs": [],
            "stateMutability": "nonpayable",
            "type": "function"
        },
        {
            "inputs": [
                {
                    "internalType": "bytes32",
                    "name": "role",
                    "type": "bytes32"
                },
                {
                    "internalType": "address",
                    "name": "account",
                    "type": "address"
                }
            ],
            "name": "revokeRole",
            "outputs": [],
            "stateMutability": "nonpayable",
            "type": "function"
        },
        {
            "inputs": [
                {
                    "internalType": "address",
                    "name": "from",
                    "type": "address"
                },
                {
                    "internalType": "address",
                    "name": "to",
                    "type": "address"
                },
                {
                    "internalType": "uint256",
                    "name": "tokenId",
                    "type": "uint256"
                }
            ],
            "name": "safeTransferFrom",
            "outputs": [],
            "stateMutability": "nonpayable",
            "type": "function"
        },
        {
            "inputs": [
                {
                    "internalType": "address",
                    "name": "from",
                    "type": "address"
                },
                {
                    "internalType": "address",
                    "name": "to",
                    "type": "address"
                },
                {
                    "internalType": "uint256",
                    "name": "tokenId",
                    "type": "uint256"
                },
                {
                    "internalType": "bytes",
                    "name": "_data",
                    "type": "bytes"
                }
            ],
            "name": "safeTransferFrom",
            "outputs": [],
            "stateMutability": "nonpayable",
            "type": "function"
        },
        {
            "inputs": [
                {
                    "internalType": "address",
                    "name": "operator",
                    "type": "address"
                },
                {
                    "internalType": "bool",
                    "name": "approved",
                    "type": "bool"
                }
            ],
            "name": "setApprovalForAll",
            "outputs": [],
            "stateMutability": "nonpayable",
            "type": "function"
        },
        {
            "inputs": [],
            "name": "symbol",
            "outputs": [
                {
                    "internalType": "string",
                    "name": "",
                    "type": "string"
                }
            ],
            "stateMutability": "view",
            "type": "function"
        },
        {
            "inputs": [
                {
                    "internalType": "uint256",
                    "name": "tokenId",
                    "type": "uint256"
                }
            ],
            "name": "tokenURI",
            "outputs": [
                {
                    "internalType": "string",
                    "name": "",
                    "type": "string"
                }
            ],
            "stateMutability": "view",
            "type": "function"
        },
        {
            "inputs": [
                {
                    "internalType": "address",
                    "name": "from",
                    "type": "address"
                },
                {
                    "internalType": "address",
                    "name": "to",
                    "type": "address"
                },
                {
                    "internalType": "uint256",
                    "name": "tokenId",
                    "type": "uint256"
                }
            ],
            "name": "transferFrom",
            "outputs": [],
            "stateMutability": "nonpayable",
            "type": "function"
        },
        {
            "inputs": [
                {
                    "internalType": "address",
                    "name": "newOwner",
                    "type": "address"
                }
            ],
            "name": "transferOwnership",
            "outputs": [],
            "stateMutability": "nonpayable",
            "type": "function"
        },
        {
            "inputs": [
                {
                    "internalType": "address",
                    "name": "to",
                    "type": "address"
                },
                {
                    "internalType": "string",
                    "name": "metadataURI",
                    "type": "string"
                }
            ],
            "name": "mintWithTokenURI",
            "outputs": [
                {
                    "internalType": "bool",
                    "name": "",
                    "type": "bool"
                }
            ],
            "stateMutability": "nonpayable",
            "type": "function"
        },
        {
            "inputs": [
                {
                    "internalType": "address",
                    "name": "minter",
                    "type": "address"
                }
            ],
            "name": "addMinter",
            "outputs": [],
            "stateMutability": "nonpayable",
            "type": "function"
        },
        {
            "inputs": [
                {
                    "internalType": "address",
                    "name": "burner",
                    "type": "address"
                }
            ],
            "name": "addBurner",
            "outputs": [],
            "stateMutability": "nonpayable",
            "type": "function"
        },
        {
            "inputs": [],
            "name": "renounceMinter",
            "outputs": [],
            "stateMutability": "nonpayable",
            "type": "function"
        },
        {
            "inputs": [],
            "name": "renounceBurner",
            "outputs": [],
            "stateMutability": "nonpayable",
            "type": "function"
        },
        {
            "inputs": [
                {
                    "internalType": "uint256",
                    "name": "_tokenId",
                    "type": "uint256"
                }
            ],
            "name": "burn",
            "outputs": [],
            "stateMutability": "nonpayable",
            "type": "function"
        },
        {
            "inputs": [
                {
                    "internalType": "bytes4",
                    "name": "interfaceId",
                    "type": "bytes4"
                }
            ],
            "name": "supportsInterface",
            "outputs": [
                {
                    "internalType": "bool",
                    "name": "",
                    "type": "bool"
                }
            ],
            "stateMutability": "view",
            "type": "function"
        }
    ],
    "bytecode": "0x60806040523480156200001157600080fd5b506040516200469c3803806200469c83398181016040528101906200003791906200045b565b818181600090805190602001906200005192919062000339565b5080600190805190602001906200006a92919062000339565b5050506200008d620000816200010e60201b60201c565b6200011660201b60201c565b620000a26000801b33620001dc60201b60201c565b620000d47f9f2df0fed2c77648de5860a4cc508cd0818c85b8b8a1ab4ceeef8d981c8956a633620001dc60201b60201c565b620001067f3c11d16cbaffd01df69ce1c404f6340ee057498f5f00246190ea54220576a84833620001dc60201b60201c565b50506200063e565b600033905090565b6000600860009054906101000a900473ffffffffffffffffffffffffffffffffffffffff16905081600860006101000a81548173ffffffffffffffffffffffffffffffffffffffff021916908373ffffffffffffffffffffffffffffffffffffffff1602179055508173ffffffffffffffffffffffffffffffffffffffff168173ffffffffffffffffffffffffffffffffffffffff167f8be0079c531659141344cd1fd0a4f28419497f9722a3daafe3b4186f6b6457e060405160405180910390a35050565b620001ee8282620002ce60201b60201c565b620002ca5760016007600084815260200190815260200160002060000160008373ffffffffffffffffffffffffffffffffffffffff1673ffffffffffffffffffffffffffffffffffffffff16815260200190815260200160002060006101000a81548160ff0219169083151502179055506200026f6200010e60201b60201c565b73ffffffffffffffffffffffffffffffffffffffff168173ffffffffffffffffffffffffffffffffffffffff16837f2f8788117e7eff1d82e926ec794901d17c78024a50270940304540a733656f0d60405160405180910390a45b5050565b60006007600084815260200190815260200160002060000160008373ffffffffffffffffffffffffffffffffffffffff1673ffffffffffffffffffffffffffffffffffffffff16815260200190815260200160002060009054906101000a900460ff16905092915050565b828054620003479062000563565b90600052602060002090601f0160209004810192826200036b5760008555620003b7565b82601f106200038657805160ff1916838001178555620003b7565b82800160010185558215620003b7579182015b82811115620003b657825182559160200191906001019062000399565b5b509050620003c69190620003ca565b5090565b5b80821115620003e5576000816000905550600101620003cb565b5090565b600062000400620003fa84620004f7565b620004ce565b9050828152602081018484840111156200041957600080fd5b620004268482856200052d565b509392505050565b600082601f8301126200044057600080fd5b815162000452848260208601620003e9565b91505092915050565b600080604083850312156200046f57600080fd5b600083015167ffffffffffffffff8111156200048a57600080fd5b62000498858286016200042e565b925050602083015167ffffffffffffffff811115620004b657600080fd5b620004c4858286016200042e565b9150509250929050565b6000620004da620004ed565b9050620004e8828262000599565b919050565b6000604051905090565b600067ffffffffffffffff821115620005155762000514620005fe565b5b62000520826200062d565b9050602081019050919050565b60005b838110156200054d57808201518184015260208101905062000530565b838111156200055d576000848401525b50505050565b600060028204905060018216806200057c57607f821691505b60208210811415620005935762000592620005cf565b5b50919050565b620005a4826200062d565b810181811067ffffffffffffffff82111715620005c657620005c5620005fe565b5b80604052505050565b7f4e487b7100000000000000000000000000000000000000000000000000000000600052602260045260246000fd5b7f4e487b7100000000000000000000000000000000000000000000000000000000600052604160045260246000fd5b6000601f19601f8301169050919050565b61404e806200064e6000396000f3fe608060405234801561001057600080fd5b50600436106101da5760003560e01c80638da5cb5b11610104578063b88d4fde116100a2578063e985e9c511610071578063e985e9c51461053f578063e9ec9e8b1461056f578063f2fde38b14610579578063f44637ba14610595576101da565b8063b88d4fde146104b9578063c87b56dd146104d5578063d539139314610505578063d547741f14610523576101da565b8063983b2d56116100de578063983b2d56146104595780639865027514610475578063a217fddf1461047f578063a22cb4651461049d576101da565b80638da5cb5b146103ed57806391d148541461040b57806395d89b411461043b576101da565b80632f2ff15d1161017c57806345c177821161014b57806345c17782146103535780636352211e1461038357806370a08231146103b3578063715018a6146103e3576101da565b80632f2ff15d146102e357806336568abe146102ff57806342842e0e1461031b57806342966c6814610337576101da565b8063095ea7b3116101b8578063095ea7b31461025d57806323b872dd14610279578063248a9ca314610295578063282c51f3146102c5576101da565b806301ffc9a7146101df57806306fdde031461020f578063081812fc1461022d575b600080fd5b6101f960048036038101906101f49190612d5e565b6105b1565b604051610206919061327f565b60405180910390f35b6102176105c3565b60405161022491906132b5565b60405180910390f35b61024760048036038101906102429190612db0565b610655565b6040516102549190613218565b60405180910390f35b61027760048036038101906102729190612cbd565b6106da565b005b610293600480360381019061028e9190612b63565b6107f2565b005b6102af60048036038101906102aa9190612cf9565b610852565b6040516102bc919061329a565b60405180910390f35b6102cd610872565b6040516102da919061329a565b60405180910390f35b6102fd60048036038101906102f89190612d22565b610896565b005b61031960048036038101906103149190612d22565b6108b7565b005b61033560048036038101906103309190612b63565b61093a565b005b610351600480360381019061034c9190612db0565b61095a565b005b61036d60048036038101906103689190612c69565b610991565b60405161037a919061327f565b60405180910390f35b61039d60048036038101906103989190612db0565b6109f5565b6040516103aa9190613218565b60405180910390f35b6103cd60048036038101906103c89190612afe565b610aa7565b6040516103da9190613557565b60405180910390f35b6103eb610b5f565b005b6103f5610be7565b6040516104029190613218565b60405180910390f35b61042560048036038101906104209190612d22565b610c11565b604051610432919061327f565b60405180910390f35b610443610c7c565b60405161045091906132b5565b60405180910390f35b610473600480360381019061046e9190612afe565b610d0e565b005b61047d610d66565b005b610487610dbd565b604051610494919061329a565b60405180910390f35b6104b760048036038101906104b29190612c2d565b610dc4565b005b6104d360048036038101906104ce9190612bb2565b610dda565b005b6104ef60048036038101906104ea9190612db0565b610e3c565b6040516104fc91906132b5565b60405180910390f35b61050d610f8e565b60405161051a919061329a565b60405180910390f35b61053d60048036038101906105389190612d22565b610fb2565b005b61055960048036038101906105549190612b27565b610fd3565b604051610566919061327f565b60405180910390f35b610577611067565b005b610593600480360381019061058e9190612afe565b6110be565b005b6105af60048036038101906105aa9190612afe565b6111b6565b005b60006105bc8261120e565b9050919050565b6060600080546105d29061383b565b80601f01602080910402602001604051908101604052809291908181526020018280546105fe9061383b565b801561064b5780601f106106205761010080835404028352916020019161064b565b820191906000526020600020905b81548152906001019060200180831161062e57829003601f168201915b5050505050905090565b600061066082611288565b61069f576040517f08c379a000000000000000000000000000000000000000000000000000000000815260040161069690613497565b60405180910390fd5b6004600083815260200190815260200160002060009054906101000a900473ffffffffffffffffffffffffffffffffffffffff169050919050565b60006106e5826109f5565b90508073ffffffffffffffffffffffffffffffffffffffff168373ffffffffffffffffffffffffffffffffffffffff161415610756576040517f08c379a000000000000000000000000000000000000000000000000000000000815260040161074d906134f7565b60405180910390fd5b8073ffffffffffffffffffffffffffffffffffffffff166107756112f4565b73ffffffffffffffffffffffffffffffffffffffff1614806107a457506107a38161079e6112f4565b610fd3565b5b6107e3576040517f08c379a00000000000000000000000000000000000000000000000000000000081526004016107da906133d7565b60405180910390fd5b6107ed83836112fc565b505050565b6108036107fd6112f4565b826113b5565b610842576040517f08c379a000000000000000000000000000000000000000000000000000000000815260040161083990613517565b60405180910390fd5b61084d838383611493565b505050565b600060076000838152602001908152602001600020600101549050919050565b7f3c11d16cbaffd01df69ce1c404f6340ee057498f5f00246190ea54220576a84881565b61089f82610852565b6108a8816116fa565b6108b2838361170e565b505050565b6108bf6112f4565b73ffffffffffffffffffffffffffffffffffffffff168173ffffffffffffffffffffffffffffffffffffffff161461092c576040517f08c379a000000000000000000000000000000000000000000000000000000000815260040161092390613537565b60405180910390fd5b61093682826117ef565b5050565b61095583838360405180602001604052806000815250610dda565b505050565b7f3c11d16cbaffd01df69ce1c404f6340ee057498f5f00246190ea54220576a848610984816116fa565b61098d826118d1565b5050565b60007f9f2df0fed2c77648de5860a4cc508cd0818c85b8b8a1ab4ceeef8d981c8956a66109bd816116fa565b60006109c96009611924565b90506109d56009611932565b6109df8582611948565b6109e98185611966565b60019250505092915050565b6000806002600084815260200190815260200160002060009054906101000a900473ffffffffffffffffffffffffffffffffffffffff169050600073ffffffffffffffffffffffffffffffffffffffff168173ffffffffffffffffffffffffffffffffffffffff161415610a9e576040517f08c379a0000000000000000000000000000000000000000000000000000000008152600401610a9590613417565b60405180910390fd5b80915050919050565b60008073ffffffffffffffffffffffffffffffffffffffff168273ffffffffffffffffffffffffffffffffffffffff161415610b18576040517f08c379a0000000000000000000000000000000000000000000000000000000008152600401610b0f906133f7565b60405180910390fd5b600360008373ffffffffffffffffffffffffffffffffffffffff1673ffffffffffffffffffffffffffffffffffffffff168152602001908152602001600020549050919050565b610b676112f4565b73ffffffffffffffffffffffffffffffffffffffff16610b85610be7565b73ffffffffffffffffffffffffffffffffffffffff1614610bdb576040517f08c379a0000000000000000000000000000000000000000000000000000000008152600401610bd2906134b7565b60405180910390fd5b610be560006119da565b565b6000600860009054906101000a900473ffffffffffffffffffffffffffffffffffffffff16905090565b60006007600084815260200190815260200160002060000160008373ffffffffffffffffffffffffffffffffffffffff1673ffffffffffffffffffffffffffffffffffffffff16815260200190815260200160002060009054906101000a900460ff16905092915050565b606060018054610c8b9061383b565b80601f0160208091040260200160405190810160405280929190818152602001828054610cb79061383b565b8015610d045780601f10610cd957610100808354040283529160200191610d04565b820191906000526020600020905b815481529060010190602001808311610ce757829003601f168201915b5050505050905090565b7f9f2df0fed2c77648de5860a4cc508cd0818c85b8b8a1ab4ceeef8d981c8956a6610d38816116fa565b610d627f9f2df0fed2c77648de5860a4cc508cd0818c85b8b8a1ab4ceeef8d981c8956a68361170e565b5050565b7f9f2df0fed2c77648de5860a4cc508cd0818c85b8b8a1ab4ceeef8d981c8956a6610d90816116fa565b610dba7f9f2df0fed2c77648de5860a4cc508cd0818c85b8b8a1ab4ceeef8d981c8956a6336117ef565b50565b6000801b81565b610dd6610dcf6112f4565b8383611aa0565b5050565b610deb610de56112f4565b836113b5565b610e2a576040517f08c379a0000000000000000000000000000000000000000000000000000000008152600401610e2190613517565b60405180910390fd5b610e3684848484611c0d565b50505050565b6060610e4782611288565b610e86576040517f08c379a0000000000000000000000000000000000000000000000000000000008152600401610e7d90613477565b60405180910390fd5b6000600660008481526020019081526020016000208054610ea69061383b565b80601f0160208091040260200160405190810160405280929190818152602001828054610ed29061383b565b8015610f1f5780601f10610ef457610100808354040283529160200191610f1f565b820191906000526020600020905b815481529060010190602001808311610f0257829003601f168201915b505050505090506000610f30611c69565b9050600081511415610f46578192505050610f89565b600082511115610f7b578082604051602001610f639291906131ba565b60405160208183030381529060405292505050610f89565b610f8484611c80565b925050505b919050565b7f9f2df0fed2c77648de5860a4cc508cd0818c85b8b8a1ab4ceeef8d981c8956a681565b610fbb82610852565b610fc4816116fa565b610fce83836117ef565b505050565b6000600560008473ffffffffffffffffffffffffffffffffffffffff1673ffffffffffffffffffffffffffffffffffffffff16815260200190815260200160002060008373ffffffffffffffffffffffffffffffffffffffff1673ffffffffffffffffffffffffffffffffffffffff16815260200190815260200160002060009054906101000a900460ff16905092915050565b7f3c11d16cbaffd01df69ce1c404f6340ee057498f5f00246190ea54220576a848611091816116fa565b6110bb7f3c11d16cbaffd01df69ce1c404f6340ee057498f5f00246190ea54220576a848336117ef565b50565b6110c66112f4565b73ffffffffffffffffffffffffffffffffffffffff166110e4610be7565b73ffffffffffffffffffffffffffffffffffffffff161461113a576040517f08c379a0000000000000000000000000000000000000000000000000000000008152600401611131906134b7565b60405180910390fd5b600073ffffffffffffffffffffffffffffffffffffffff168173ffffffffffffffffffffffffffffffffffffffff1614156111aa576040517f08c379a00000000000000000000000000000000000000000000000000000000081526004016111a190613317565b60405180910390fd5b6111b3816119da565b50565b7f3c11d16cbaffd01df69ce1c404f6340ee057498f5f00246190ea54220576a8486111e0816116fa565b61120a7f3c11d16cbaffd01df69ce1c404f6340ee057498f5f00246190ea54220576a8488361170e565b5050565b60007f7965db0b000000000000000000000000000000000000000000000000000000007bffffffffffffffffffffffffffffffffffffffffffffffffffffffff1916827bffffffffffffffffffffffffffffffffffffffffffffffffffffffff19161480611281575061128082611d27565b5b9050919050565b60008073ffffffffffffffffffffffffffffffffffffffff166002600084815260200190815260200160002060009054906101000a900473ffffffffffffffffffffffffffffffffffffffff1673ffffffffffffffffffffffffffffffffffffffff1614159050919050565b600033905090565b816004600083815260200190815260200160002060006101000a81548173ffffffffffffffffffffffffffffffffffffffff021916908373ffffffffffffffffffffffffffffffffffffffff160217905550808273ffffffffffffffffffffffffffffffffffffffff1661136f836109f5565b73ffffffffffffffffffffffffffffffffffffffff167f8c5be1e5ebec7d5bd14f71427d1e84f3dd0314c0f7b2291e5b200ac8c7c3b92560405160405180910390a45050565b60006113c082611288565b6113ff576040517f08c379a00000000000000000000000000000000000000000000000000000000081526004016113f6906133b7565b60405180910390fd5b600061140a836109f5565b90508073ffffffffffffffffffffffffffffffffffffffff168473ffffffffffffffffffffffffffffffffffffffff16148061144c575061144b8185610fd3565b5b8061148a57508373ffffffffffffffffffffffffffffffffffffffff1661147284610655565b73ffffffffffffffffffffffffffffffffffffffff16145b91505092915050565b8273ffffffffffffffffffffffffffffffffffffffff166114b3826109f5565b73ffffffffffffffffffffffffffffffffffffffff1614611509576040517f08c379a000000000000000000000000000000000000000000000000000000000815260040161150090613337565b60405180910390fd5b600073ffffffffffffffffffffffffffffffffffffffff168273ffffffffffffffffffffffffffffffffffffffff161415611579576040517f08c379a000000000000000000000000000000000000000000000000000000000815260040161157090613377565b60405180910390fd5b611584838383611e09565b61158f6000826112fc565b6001600360008573ffffffffffffffffffffffffffffffffffffffff1673ffffffffffffffffffffffffffffffffffffffff16815260200190815260200160002060008282546115df919061371d565b925050819055506001600360008473ffffffffffffffffffffffffffffffffffffffff1673ffffffffffffffffffffffffffffffffffffffff1681526020019081526020016000206000828254611636919061363c565b92505081905550816002600083815260200190815260200160002060006101000a81548173ffffffffffffffffffffffffffffffffffffffff021916908373ffffffffffffffffffffffffffffffffffffffff160217905550808273ffffffffffffffffffffffffffffffffffffffff168473ffffffffffffffffffffffffffffffffffffffff167fddf252ad1be2c89b69c2b068fc378daa952ba7f163c4a11628f55a4df523b3ef60405160405180910390a46116f5838383611e0e565b505050565b61170b816117066112f4565b611e13565b50565b6117188282610c11565b6117eb5760016007600084815260200190815260200160002060000160008373ffffffffffffffffffffffffffffffffffffffff1673ffffffffffffffffffffffffffffffffffffffff16815260200190815260200160002060006101000a81548160ff0219169083151502179055506117906112f4565b73ffffffffffffffffffffffffffffffffffffffff168173ffffffffffffffffffffffffffffffffffffffff16837f2f8788117e7eff1d82e926ec794901d17c78024a50270940304540a733656f0d60405160405180910390a45b5050565b6117f98282610c11565b156118cd5760006007600084815260200190815260200160002060000160008373ffffffffffffffffffffffffffffffffffffffff1673ffffffffffffffffffffffffffffffffffffffff16815260200190815260200160002060006101000a81548160ff0219169083151502179055506118726112f4565b73ffffffffffffffffffffffffffffffffffffffff168173ffffffffffffffffffffffffffffffffffffffff16837ff6391f5c32d9c69d2a47ea670b442974b53935d1edc7fd64eb21e047a839171b60405160405180910390a45b5050565b6118da81611eb0565b60006006600083815260200190815260200160002080546118fa9061383b565b9050146119215760066000828152602001908152602001600020600061192091906128cd565b5b50565b600081600001549050919050565b6001816000016000828254019250508190555050565b611962828260405180602001604052806000815250611fcd565b5050565b61196f82611288565b6119ae576040517f08c379a00000000000000000000000000000000000000000000000000000000081526004016119a590613437565b60405180910390fd5b806006600084815260200190815260200160002090805190602001906119d592919061290d565b505050565b6000600860009054906101000a900473ffffffffffffffffffffffffffffffffffffffff16905081600860006101000a81548173ffffffffffffffffffffffffffffffffffffffff021916908373ffffffffffffffffffffffffffffffffffffffff1602179055508173ffffffffffffffffffffffffffffffffffffffff168173ffffffffffffffffffffffffffffffffffffffff167f8be0079c531659141344cd1fd0a4f28419497f9722a3daafe3b4186f6b6457e060405160405180910390a35050565b8173ffffffffffffffffffffffffffffffffffffffff168373ffffffffffffffffffffffffffffffffffffffff161415611b0f576040517f08c379a0000000000000000000000000000000000000000000000000000000008152600401611b0690613397565b60405180910390fd5b80600560008573ffffffffffffffffffffffffffffffffffffffff1673ffffffffffffffffffffffffffffffffffffffff16815260200190815260200160002060008473ffffffffffffffffffffffffffffffffffffffff1673ffffffffffffffffffffffffffffffffffffffff16815260200190815260200160002060006101000a81548160ff0219169083151502179055508173ffffffffffffffffffffffffffffffffffffffff168373ffffffffffffffffffffffffffffffffffffffff167f17307eab39ab6107e8899845ad3d59bd9653f200f220920489ca2b5937696c3183604051611c00919061327f565b60405180910390a3505050565b611c18848484611493565b611c2484848484612028565b611c63576040517f08c379a0000000000000000000000000000000000000000000000000000000008152600401611c5a906132f7565b60405180910390fd5b50505050565b606060405180602001604052806000815250905090565b6060611c8b82611288565b611cca576040517f08c379a0000000000000000000000000000000000000000000000000000000008152600401611cc1906134d7565b60405180910390fd5b6000611cd4611c69565b90506000815111611cf45760405180602001604052806000815250611d1f565b80611cfe846121bf565b604051602001611d0f9291906131ba565b6040516020818303038152906040525b915050919050565b60007f80ac58cd000000000000000000000000000000000000000000000000000000007bffffffffffffffffffffffffffffffffffffffffffffffffffffffff1916827bffffffffffffffffffffffffffffffffffffffffffffffffffffffff19161480611df257507f5b5e139f000000000000000000000000000000000000000000000000000000007bffffffffffffffffffffffffffffffffffffffffffffffffffffffff1916827bffffffffffffffffffffffffffffffffffffffffffffffffffffffff1916145b80611e025750611e018261236c565b5b9050919050565b505050565b505050565b611e1d8282610c11565b611eac57611e428173ffffffffffffffffffffffffffffffffffffffff1660146123d6565b611e508360001c60206123d6565b604051602001611e619291906131de565b6040516020818303038152906040526040517f08c379a0000000000000000000000000000000000000000000000000000000008152600401611ea391906132b5565b60405180910390fd5b5050565b6000611ebb826109f5565b9050611ec981600084611e09565b611ed46000836112fc565b6001600360008373ffffffffffffffffffffffffffffffffffffffff1673ffffffffffffffffffffffffffffffffffffffff1681526020019081526020016000206000828254611f24919061371d565b925050819055506002600083815260200190815260200160002060006101000a81549073ffffffffffffffffffffffffffffffffffffffff021916905581600073ffffffffffffffffffffffffffffffffffffffff168273ffffffffffffffffffffffffffffffffffffffff167fddf252ad1be2c89b69c2b068fc378daa952ba7f163c4a11628f55a4df523b3ef60405160405180910390a4611fc981600084611e0e565b5050565b611fd783836126d0565b611fe46000848484612028565b612023576040517f08c379a000000000000000000000000000000000000000000000000000000000815260040161201a906132f7565b60405180910390fd5b505050565b60006120498473ffffffffffffffffffffffffffffffffffffffff166128aa565b156121b2578373ffffffffffffffffffffffffffffffffffffffff1663150b7a026120726112f4565b8786866040518563ffffffff1660e01b81526004016120949493929190613233565b602060405180830381600087803b1580156120ae57600080fd5b505af19250505080156120df57506040513d601f19601f820116820180604052508101906120dc9190612d87565b60015b612162573d806000811461210f576040519150601f19603f3d011682016040523d82523d6000602084013e612114565b606091505b5060008151141561215a576040517f08c379a0000000000000000000000000000000000000000000000000000000008152600401612151906132f7565b60405180910390fd5b805181602001fd5b63150b7a0260e01b7bffffffffffffffffffffffffffffffffffffffffffffffffffffffff1916817bffffffffffffffffffffffffffffffffffffffffffffffffffffffff1916149150506121b7565b600190505b949350505050565b60606000821415612207576040518060400160405280600181526020017f30000000000000000000000000000000000000000000000000000000000000008152509050612367565b600082905060005b600082146122395780806122229061389e565b915050600a826122329190613692565b915061220f565b60008167ffffffffffffffff81111561227b577f4e487b7100000000000000000000000000000000000000000000000000000000600052604160045260246000fd5b6040519080825280601f01601f1916602001820160405280156122ad5781602001600182028036833780820191505090505b5090505b60008514612360576001826122c6919061371d565b9150600a856122d591906138e7565b60306122e1919061363c565b60f81b81838151811061231d577f4e487b7100000000000000000000000000000000000000000000000000000000600052603260045260246000fd5b60200101907effffffffffffffffffffffffffffffffffffffffffffffffffffffffffffff1916908160001a905350600a856123599190613692565b94506122b1565b8093505050505b919050565b60007f01ffc9a7000000000000000000000000000000000000000000000000000000007bffffffffffffffffffffffffffffffffffffffffffffffffffffffff1916827bffffffffffffffffffffffffffffffffffffffffffffffffffffffff1916149050919050565b6060600060028360026123e991906136c3565b6123f3919061363c565b67ffffffffffffffff811115612432577f4e487b7100000000000000000000000000000000000000000000000000000000600052604160045260246000fd5b6040519080825280601f01601f1916602001820160405280156124645781602001600182028036833780820191505090505b5090507f3000000000000000000000000000000000000000000000000000000000000000816000815181106124c2577f4e487b7100000000000000000000000000000000000000000000000000000000600052603260045260246000fd5b60200101907effffffffffffffffffffffffffffffffffffffffffffffffffffffffffffff1916908160001a9053507f78000000000000000000000000000000000000000000000000000000000000008160018151811061254c577f4e487b7100000000000000000000000000000000000000000000000000000000600052603260045260246000fd5b60200101907effffffffffffffffffffffffffffffffffffffffffffffffffffffffffffff1916908160001a9053506000600184600261258c91906136c3565b612596919061363c565b90505b6001811115612682577f3031323334353637383961626364656600000000000000000000000000000000600f8616601081106125fe577f4e487b7100000000000000000000000000000000000000000000000000000000600052603260045260246000fd5b1a60f81b82828151811061263b577f4e487b7100000000000000000000000000000000000000000000000000000000600052603260045260246000fd5b60200101907effffffffffffffffffffffffffffffffffffffffffffffffffffffffffffff1916908160001a905350600485901c94508061267b90613811565b9050612599565b50600084146126c6576040517f08c379a00000000000000000000000000000000000000000000000000000000081526004016126bd906132d7565b60405180910390fd5b8091505092915050565b600073ffffffffffffffffffffffffffffffffffffffff168273ffffffffffffffffffffffffffffffffffffffff161415612740576040517f08c379a000000000000000000000000000000000000000000000000000000000815260040161273790613457565b60405180910390fd5b61274981611288565b15612789576040517f08c379a000000000000000000000000000000000000000000000000000000000815260040161278090613357565b60405180910390fd5b61279560008383611e09565b6001600360008473ffffffffffffffffffffffffffffffffffffffff1673ffffffffffffffffffffffffffffffffffffffff16815260200190815260200160002060008282546127e5919061363c565b92505081905550816002600083815260200190815260200160002060006101000a81548173ffffffffffffffffffffffffffffffffffffffff021916908373ffffffffffffffffffffffffffffffffffffffff160217905550808273ffffffffffffffffffffffffffffffffffffffff16600073ffffffffffffffffffffffffffffffffffffffff167fddf252ad1be2c89b69c2b068fc378daa952ba7f163c4a11628f55a4df523b3ef60405160405180910390a46128a660008383611e0e565b5050565b6000808273ffffffffffffffffffffffffffffffffffffffff163b119050919050565b5080546128d99061383b565b6000825580601f106128eb575061290a565b601f0160209004906000526020600020908101906129099190612993565b5b50565b8280546129199061383b565b90600052602060002090601f01602090048101928261293b5760008555612982565b82601f1061295457805160ff1916838001178555612982565b82800160010185558215612982579182015b82811115612981578251825591602001919060010190612966565b5b50905061298f9190612993565b5090565b5b808211156129ac576000816000905550600101612994565b5090565b60006129c36129be84613597565b613572565b9050828152602081018484840111156129db57600080fd5b6129e68482856137cf565b509392505050565b6000612a016129fc846135c8565b613572565b905082815260208101848484011115612a1957600080fd5b612a248482856137cf565b509392505050565b600081359050612a3b81613fa5565b92915050565b600081359050612a5081613fbc565b92915050565b600081359050612a6581613fd3565b92915050565b600081359050612a7a81613fea565b92915050565b600081519050612a8f81613fea565b92915050565b600082601f830112612aa657600080fd5b8135612ab68482602086016129b0565b91505092915050565b600082601f830112612ad057600080fd5b8135612ae08482602086016129ee565b91505092915050565b600081359050612af881614001565b92915050565b600060208284031215612b1057600080fd5b6000612b1e84828501612a2c565b91505092915050565b60008060408385031215612b3a57600080fd5b6000612b4885828601612a2c565b9250506020612b5985828601612a2c565b9150509250929050565b600080600060608486031215612b7857600080fd5b6000612b8686828701612a2c565b9350506020612b9786828701612a2c565b9250506040612ba886828701612ae9565b9150509250925092565b60008060008060808587031215612bc857600080fd5b6000612bd687828801612a2c565b9450506020612be787828801612a2c565b9350506040612bf887828801612ae9565b925050606085013567ffffffffffffffff811115612c1557600080fd5b612c2187828801612a95565b91505092959194509250565b60008060408385031215612c4057600080fd5b6000612c4e85828601612a2c565b9250506020612c5f85828601612a41565b9150509250929050565b60008060408385031215612c7c57600080fd5b6000612c8a85828601612a2c565b925050602083013567ffffffffffffffff811115612ca757600080fd5b612cb385828601612abf565b9150509250929050565b60008060408385031215612cd057600080fd5b6000612cde85828601612a2c565b9250506020612cef85828601612ae9565b9150509250929050565b600060208284031215612d0b57600080fd5b6000612d1984828501612a56565b91505092915050565b60008060408385031215612d3557600080fd5b6000612d4385828601612a56565b9250506020612d5485828601612a2c565b9150509250929050565b600060208284031215612d7057600080fd5b6000612d7e84828501612a6b565b91505092915050565b600060208284031215612d9957600080fd5b6000612da784828501612a80565b91505092915050565b600060208284031215612dc257600080fd5b6000612dd084828501612ae9565b91505092915050565b612de281613751565b82525050565b612df181613763565b82525050565b612e008161376f565b82525050565b6000612e11826135f9565b612e1b818561360f565b9350612e2b8185602086016137de565b612e34816139d4565b840191505092915050565b6000612e4a82613604565b612e548185613620565b9350612e648185602086016137de565b612e6d816139d4565b840191505092915050565b6000612e8382613604565b612e8d8185613631565b9350612e9d8185602086016137de565b80840191505092915050565b6000612eb6602083613620565b9150612ec1826139e5565b602082019050919050565b6000612ed9603283613620565b9150612ee482613a0e565b604082019050919050565b6000612efc602683613620565b9150612f0782613a5d565b604082019050919050565b6000612f1f602583613620565b9150612f2a82613aac565b604082019050919050565b6000612f42601c83613620565b9150612f4d82613afb565b602082019050919050565b6000612f65602483613620565b9150612f7082613b24565b604082019050919050565b6000612f88601983613620565b9150612f9382613b73565b602082019050919050565b6000612fab602c83613620565b9150612fb682613b9c565b604082019050919050565b6000612fce603883613620565b9150612fd982613beb565b604082019050919050565b6000612ff1602a83613620565b9150612ffc82613c3a565b604082019050919050565b6000613014602983613620565b915061301f82613c89565b604082019050919050565b6000613037602e83613620565b915061304282613cd8565b604082019050919050565b600061305a602083613620565b915061306582613d27565b602082019050919050565b600061307d603183613620565b915061308882613d50565b604082019050919050565b60006130a0602c83613620565b91506130ab82613d9f565b604082019050919050565b60006130c3602083613620565b91506130ce82613dee565b602082019050919050565b60006130e6602f83613620565b91506130f182613e17565b604082019050919050565b6000613109602183613620565b915061311482613e66565b604082019050919050565b600061312c603183613620565b915061313782613eb5565b604082019050919050565b600061314f601783613631565b915061315a82613f04565b601782019050919050565b6000613172601183613631565b915061317d82613f2d565b601182019050919050565b6000613195602f83613620565b91506131a082613f56565b604082019050919050565b6131b4816137c5565b82525050565b60006131c68285612e78565b91506131d28284612e78565b91508190509392505050565b60006131e982613142565b91506131f58285612e78565b915061320082613165565b915061320c8284612e78565b91508190509392505050565b600060208201905061322d6000830184612dd9565b92915050565b60006080820190506132486000830187612dd9565b6132556020830186612dd9565b61326260408301856131ab565b81810360608301526132748184612e06565b905095945050505050565b60006020820190506132946000830184612de8565b92915050565b60006020820190506132af6000830184612df7565b92915050565b600060208201905081810360008301526132cf8184612e3f565b905092915050565b600060208201905081810360008301526132f081612ea9565b9050919050565b6000602082019050818103600083015261331081612ecc565b9050919050565b6000602082019050818103600083015261333081612eef565b9050919050565b6000602082019050818103600083015261335081612f12565b9050919050565b6000602082019050818103600083015261337081612f35565b9050919050565b6000602082019050818103600083015261339081612f58565b9050919050565b600060208201905081810360008301526133b081612f7b565b9050919050565b600060208201905081810360008301526133d081612f9e565b9050919050565b600060208201905081810360008301526133f081612fc1565b9050919050565b6000602082019050818103600083015261341081612fe4565b9050919050565b6000602082019050818103600083015261343081613007565b9050919050565b600060208201905081810360008301526134508161302a565b9050919050565b600060208201905081810360008301526134708161304d565b9050919050565b6000602082019050818103600083015261349081613070565b9050919050565b600060208201905081810360008301526134b081613093565b9050919050565b600060208201905081810360008301526134d0816130b6565b9050919050565b600060208201905081810360008301526134f0816130d9565b9050919050565b60006020820190508181036000830152613510816130fc565b9050919050565b600060208201905081810360008301526135308161311f565b9050919050565b6000602082019050818103600083015261355081613188565b9050919050565b600060208201905061356c60008301846131ab565b92915050565b600061357c61358d565b9050613588828261386d565b919050565b6000604051905090565b600067ffffffffffffffff8211156135b2576135b16139a5565b5b6135bb826139d4565b9050602081019050919050565b600067ffffffffffffffff8211156135e3576135e26139a5565b5b6135ec826139d4565b9050602081019050919050565b600081519050919050565b600081519050919050565b600082825260208201905092915050565b600082825260208201905092915050565b600081905092915050565b6000613647826137c5565b9150613652836137c5565b9250827fffffffffffffffffffffffffffffffffffffffffffffffffffffffffffffffff0382111561368757613686613918565b5b828201905092915050565b600061369d826137c5565b91506136a8836137c5565b9250826136b8576136b7613947565b5b828204905092915050565b60006136ce826137c5565b91506136d9836137c5565b9250817fffffffffffffffffffffffffffffffffffffffffffffffffffffffffffffffff048311821515161561371257613711613918565b5b828202905092915050565b6000613728826137c5565b9150613733836137c5565b92508282101561374657613745613918565b5b828203905092915050565b600061375c826137a5565b9050919050565b60008115159050919050565b6000819050919050565b60007fffffffff0000000000000000000000000000000000000000000000000000000082169050919050565b600073ffffffffffffffffffffffffffffffffffffffff82169050919050565b6000819050919050565b82818337600083830152505050565b60005b838110156137fc5780820151818401526020810190506137e1565b8381111561380b576000848401525b50505050565b600061381c826137c5565b915060008214156138305761382f613918565b5b600182039050919050565b6000600282049050600182168061385357607f821691505b6020821081141561386757613866613976565b5b50919050565b613876826139d4565b810181811067ffffffffffffffff82111715613895576138946139a5565b5b80604052505050565b60006138a9826137c5565b91507fffffffffffffffffffffffffffffffffffffffffffffffffffffffffffffffff8214156138dc576138db613918565b5b600182019050919050565b60006138f2826137c5565b91506138fd836137c5565b92508261390d5761390c613947565b5b828206905092915050565b7f4e487b7100000000000000000000000000000000000000000000000000000000600052601160045260246000fd5b7f4e487b7100000000000000000000000000000000000000000000000000000000600052601260045260246000fd5b7f4e487b7100000000000000000000000000000000000000000000000000000000600052602260045260246000fd5b7f4e487b7100000000000000000000000000000000000000000000000000000000600052604160045260246000fd5b6000601f19601f8301169050919050565b7f537472696e67733a20686578206c656e67746820696e73756666696369656e74600082015250565b7f4552433732313a207472616e7366657220746f206e6f6e20455243373231526560008201527f63656976657220696d706c656d656e7465720000000000000000000000000000602082015250565b7f4f776e61626c653a206e6577206f776e657220697320746865207a65726f206160008201527f6464726573730000000000000000000000000000000000000000000000000000602082015250565b7f4552433732313a207472616e736665722066726f6d20696e636f72726563742060008201527f6f776e6572000000000000000000000000000000000000000000000000000000602082015250565b7f4552433732313a20746f6b656e20616c7265616479206d696e74656400000000600082015250565b7f4552433732313a207472616e7366657220746f20746865207a65726f2061646460008201527f7265737300000000000000000000000000000000000000000000000000000000602082015250565b7f4552433732313a20617070726f766520746f2063616c6c657200000000000000600082015250565b7f4552433732313a206f70657261746f7220717565727920666f72206e6f6e657860008201527f697374656e7420746f6b656e0000000000000000000000000000000000000000602082015250565b7f4552433732313a20617070726f76652063616c6c6572206973206e6f74206f7760008201527f6e6572206e6f7220617070726f76656420666f7220616c6c0000000000000000602082015250565b7f4552433732313a2062616c616e636520717565727920666f7220746865207a6560008201527f726f206164647265737300000000000000000000000000000000000000000000602082015250565b7f4552433732313a206f776e657220717565727920666f72206e6f6e657869737460008201527f656e7420746f6b656e0000000000000000000000000000000000000000000000602082015250565b7f45524337323155524953746f726167653a2055524920736574206f66206e6f6e60008201527f6578697374656e7420746f6b656e000000000000000000000000000000000000602082015250565b7f4552433732313a206d696e7420746f20746865207a65726f2061646472657373600082015250565b7f45524337323155524953746f726167653a2055524920717565727920666f722060008201527f6e6f6e6578697374656e7420746f6b656e000000000000000000000000000000602082015250565b7f4552433732313a20617070726f76656420717565727920666f72206e6f6e657860008201527f697374656e7420746f6b656e0000000000000000000000000000000000000000602082015250565b7f4f776e61626c653a2063616c6c6572206973206e6f7420746865206f776e6572600082015250565b7f4552433732314d657461646174613a2055524920717565727920666f72206e6f60008201527f6e6578697374656e7420746f6b656e0000000000000000000000000000000000602082015250565b7f4552433732313a20617070726f76616c20746f2063757272656e74206f776e6560008201527f7200000000000000000000000000000000000000000000000000000000000000602082015250565b7f4552433732313a207472616e736665722063616c6c6572206973206e6f74206f60008201527f776e6572206e6f7220617070726f766564000000000000000000000000000000602082015250565b7f416363657373436f6e74726f6c3a206163636f756e7420000000000000000000600082015250565b7f206973206d697373696e6720726f6c6520000000000000000000000000000000600082015250565b7f416363657373436f6e74726f6c3a2063616e206f6e6c792072656e6f756e636560008201527f20726f6c657320666f722073656c660000000000000000000000000000000000602082015250565b613fae81613751565b8114613fb957600080fd5b50565b613fc581613763565b8114613fd057600080fd5b50565b613fdc8161376f565b8114613fe757600080fd5b50565b613ff381613779565b8114613ffe57600080fd5b50565b61400a816137c5565b811461401557600080fd5b5056fea26469706673582212200f577d47b464e8c2ceda73f2391e8cb57fd50509e41f544a76d1449cafb4966364736f6c63430008010033",
    "immutableReferences": {},
    "source": "// SPDX-License-Identifier: MIT\npragma solidity ^0.8.1;\n\nimport \"@openzeppelin/contracts/access/AccessControl.sol\";\nimport \"@openzeppelin/contracts/access/Ownable.sol\";\nimport \"@openzeppelin/contracts/utils/Counters.sol\";\nimport \"@openzeppelin/contracts/token/ERC721/extensions/ERC721URIStorage.sol\";\n\ncontract BasicNFT is ERC721URIStorage, AccessControl, Ownable {\n    using Counters for Counters.Counter;\n    /// @dev Counter auto-incrementating NFT tokenIds, default: 0\n    Counters.Counter private _tokenIdCounter;\n\n    bytes32 public constant MINTER_ROLE = keccak256(\"MINTER_ROLE\");\n    bytes32 public constant BURNER_ROLE = keccak256(\"BURNER_ROLE\");\n\n    /// @notice Contract initiation:\n    /// @notice The account deploying the contract will have the minter role and will be able to grand other accounts\n    /// @notice The contract is built with only a name & a symbol as metadata. Each NFT metadata will be given at mint time\n    constructor(string memory _name, string memory _symbol) ERC721(_name, _symbol) {\n        _grantRole(DEFAULT_ADMIN_ROLE, msg.sender);\n        _grantRole(MINTER_ROLE, msg.sender);\n        _grantRole(BURNER_ROLE, msg.sender);\n    }\n\n    /// @notice NFT minting with metadata i.e tokenURI\n    /// @notice Each mint will increment the tokenId, starting from 0\n    function mintWithTokenURI(address to, string memory metadataURI) public onlyRole(MINTER_ROLE) returns (bool) {\n        uint256 tokenId = _tokenIdCounter.current();\n        _tokenIdCounter.increment();\n        _safeMint(to, tokenId);\n        _setTokenURI(tokenId, metadataURI);\n        return true;\n    }\n\n    function addMinter(address minter) public onlyRole(MINTER_ROLE) {\n        _grantRole(MINTER_ROLE, minter);\n    }\n\n    function addBurner(address burner) public onlyRole(BURNER_ROLE) {\n        _grantRole(BURNER_ROLE, burner);\n    }\n\n    function renounceMinter() public onlyRole(MINTER_ROLE) {\n        _revokeRole(MINTER_ROLE, msg.sender);\n    }\n\n    function renounceBurner() public onlyRole(BURNER_ROLE) {\n        _revokeRole(BURNER_ROLE, msg.sender);\n    }\n\n    function burn(uint256 _tokenId) external onlyRole(BURNER_ROLE) {\n        _burn(_tokenId);\n    }\n\n    function supportsInterface(bytes4 interfaceId) public view override(ERC721, AccessControl) returns (bool) {\n        return super.supportsInterface(interfaceId);\n    }\n}\n",
    "sourcePath": "/Users/fermincarranza/consensys/sdk-contracts/contracts/BasicNFT.sol",
    "compiler": {
        "name": "solc",
        "version": "0.8.1+commit.df193b15.Emscripten.clang"
    },
    "schemaVersion": "3.4.7",
    "updatedAt": "2022-05-10T18:46:03.880Z",
    "devdoc": {
        "kind": "dev",
        "methods": {
            "approve(address,uint256)": {
                "details": "See {IERC721-approve}."
            },
            "balanceOf(address)": {
                "details": "See {IERC721-balanceOf}."
            },
            "getApproved(uint256)": {
                "details": "See {IERC721-getApproved}."
            },
            "getRoleAdmin(bytes32)": {
                "details": "Returns the admin role that controls `role`. See {grantRole} and {revokeRole}. To change a role's admin, use {_setRoleAdmin}."
            },
            "grantRole(bytes32,address)": {
                "details": "Grants `role` to `account`. If `account` had not been already granted `role`, emits a {RoleGranted} event. Requirements: - the caller must have ``role``'s admin role."
            },
            "hasRole(bytes32,address)": {
                "details": "Returns `true` if `account` has been granted `role`."
            },
            "isApprovedForAll(address,address)": {
                "details": "See {IERC721-isApprovedForAll}."
            },
            "name()": {
                "details": "See {IERC721Metadata-name}."
            },
            "owner()": {
                "details": "Returns the address of the current owner."
            },
            "ownerOf(uint256)": {
                "details": "See {IERC721-ownerOf}."
            },
            "renounceOwnership()": {
                "details": "Leaves the contract without owner. It will not be possible to call `onlyOwner` functions anymore. Can only be called by the current owner. NOTE: Renouncing ownership will leave the contract without an owner, thereby removing any functionality that is only available to the owner."
            },
            "renounceRole(bytes32,address)": {
                "details": "Revokes `role` from the calling account. Roles are often managed via {grantRole} and {revokeRole}: this function's purpose is to provide a mechanism for accounts to lose their privileges if they are compromised (such as when a trusted device is misplaced). If the calling account had been revoked `role`, emits a {RoleRevoked} event. Requirements: - the caller must be `account`."
            },
            "revokeRole(bytes32,address)": {
                "details": "Revokes `role` from `account`. If `account` had been granted `role`, emits a {RoleRevoked} event. Requirements: - the caller must have ``role``'s admin role."
            },
            "safeTransferFrom(address,address,uint256)": {
                "details": "See {IERC721-safeTransferFrom}."
            },
            "safeTransferFrom(address,address,uint256,bytes)": {
                "details": "See {IERC721-safeTransferFrom}."
            },
            "setApprovalForAll(address,bool)": {
                "details": "See {IERC721-setApprovalForAll}."
            },
            "symbol()": {
                "details": "See {IERC721Metadata-symbol}."
            },
            "tokenURI(uint256)": {
                "details": "See {IERC721Metadata-tokenURI}."
            },
            "transferFrom(address,address,uint256)": {
                "details": "See {IERC721-transferFrom}."
            },
            "transferOwnership(address)": {
                "details": "Transfers ownership of the contract to a new account (`newOwner`). Can only be called by the current owner."
            }
        },
        "stateVariables": {
            "_tokenIdCounter": {
                "details": "Counter auto-incrementating NFT tokenIds, default: 0"
            }
        },
        "version": 1
    },
    "userdoc": {
        "kind": "user",
        "methods": {
            "constructor": {
                "notice": "Contract initiation:The account deploying the contract will have the minter role and will be able to grand other accountsThe contract is built with only a name & a symbol as metadata. Each NFT metadata will be given at mint time"
            },
            "mintWithTokenURI(address,string)": {
                "notice": "NFT minting with metadata i.e tokenURIEach mint will increment the tokenId, starting from 0"
            }
        },
        "version": 1
    }
}